{
  "contractName": "GuessNumber",
  "abi": [
    {
      "inputs": [
        {
          "internalType": "uint256",
          "name": "_price",
          "type": "uint256"
        }
      ],
      "payable": false,
      "stateMutability": "nonpayable",
      "type": "constructor"
    },
    {
      "constant": true,
      "inputs": [],
      "name": "answer",
      "outputs": [
        {
          "internalType": "uint256",
          "name": "",
          "type": "uint256"
        }
      ],
      "payable": false,
      "stateMutability": "view",
      "type": "function"
    },
    {
      "constant": true,
      "inputs": [
        {
          "internalType": "address",
          "name": "",
          "type": "address"
        }
      ],
      "name": "counts",
      "outputs": [
        {
          "internalType": "uint256",
          "name": "",
          "type": "uint256"
        }
      ],
      "payable": false,
      "stateMutability": "view",
      "type": "function"
    },
    {
      "constant": true,
      "inputs": [],
      "name": "owner",
      "outputs": [
        {
          "internalType": "address payable",
          "name": "",
          "type": "address"
        }
      ],
      "payable": false,
      "stateMutability": "view",
      "type": "function"
    },
    {
      "constant": true,
      "inputs": [],
      "name": "price",
      "outputs": [
        {
          "internalType": "uint256",
          "name": "",
          "type": "uint256"
        }
      ],
      "payable": false,
      "stateMutability": "view",
      "type": "function"
    },
    {
      "constant": true,
      "inputs": [],
      "name": "state",
      "outputs": [
        {
          "internalType": "enum GuessNumber.State",
          "name": "",
          "type": "uint8"
        }
      ],
      "payable": false,
      "stateMutability": "view",
      "type": "function"
    },
    {
      "constant": true,
      "inputs": [],
      "name": "winner",
      "outputs": [
        {
          "internalType": "address payable",
          "name": "",
          "type": "address"
        }
      ],
      "payable": false,
      "stateMutability": "view",
      "type": "function"
    },
    {
      "constant": false,
      "inputs": [
        {
          "internalType": "uint256",
          "name": "_answer",
          "type": "uint256"
        }
      ],
      "name": "guess",
      "outputs": [
        {
          "internalType": "string",
          "name": "",
          "type": "string"
        }
      ],
      "payable": true,
      "stateMutability": "payable",
      "type": "function"
    },
    {
      "constant": false,
      "inputs": [],
      "name": "sendMoney",
      "outputs": [],
      "payable": false,
      "stateMutability": "nonpayable",
      "type": "function"
    },
    {
      "constant": true,
      "inputs": [],
      "name": "getContractBalance",
      "outputs": [
        {
          "internalType": "uint256",
          "name": "",
          "type": "uint256"
        }
      ],
      "payable": false,
      "stateMutability": "view",
      "type": "function"
    }
  ],
  "bytecode": "0x608060405234801561001057600080fd5b506040516107073803806107078339818101604052602081101561003357600080fd5b5051600080546001600160a01b03191633178155670de0b6b3a764000082026002556003805460ff60a01b1916600160a01b8302179055506064600242604051602001808281526020019150506040516020818303038152906040526040518082805190602001908083835b602083106100be5780518252601f19909201916020918201910161009f565b51815160209384036101000a60001901801990921691161790526040519190930194509192505080830381855afa1580156100fd573d6000803e3d6000fd5b5050506040513d602081101561011257600080fd5b50518161011b57fe5b06600155506105d88061012f6000396000f3fe6080604052600436106100865760003560e01c80639189fec1116100595780639189fec11461012b578063a035b1fe146101bd578063c19d93fb146101d2578063cbedbf5a1461020b578063dfbf53ae1461022257610086565b80630568e65e1461008b5780636f9fb98a146100d057806385bb7d69146100e55780638da5cb5b146100fa575b600080fd5b34801561009757600080fd5b506100be600480360360208110156100ae57600080fd5b50356001600160a01b0316610237565b60408051918252519081900360200190f35b3480156100dc57600080fd5b506100be610249565b3480156100f157600080fd5b506100be61024d565b34801561010657600080fd5b5061010f610253565b604080516001600160a01b039092168252519081900360200190f35b6101486004803603602081101561014157600080fd5b5035610262565b6040805160208082528351818301528351919283929083019185019080838360005b8381101561018257818101518382015260200161016a565b50505050905090810190601f1680156101af5780820380516001836020036101000a031916815260200191505b509250505060405180910390f35b3480156101c957600080fd5b506100be610459565b3480156101de57600080fd5b506101e761045f565b604051808260018111156101f757fe5b60ff16815260200191505060405180910390f35b34801561021757600080fd5b5061022061046f565b005b34801561022e57600080fd5b5061010f610594565b60046020526000908152604090205481565b4790565b60015481565b6000546001600160a01b031681565b6060600080600354600160a01b900460ff16600181111561027f57fe5b146102c0576040805162461bcd60e51b815260206004820152600c60248201526b7374617465206572726f722760a01b604482015290519081900360640190fd5b6000546001600160a01b0316331415610312576040805162461bcd60e51b815260206004820152600f60248201526e37bbb732b91031b0b73a103537b4b760891b604482015290519081900360640190fd5b3460025414610355576040805162461bcd60e51b815260206004820152600a602482015269103830bc9032b93937b960b11b604482015290519081900360640190fd5b60648310610392576040805162461bcd60e51b815260206004820152600560248201526432b93937b960d91b604482015290519081900360640190fd5b33600090815260046020526040902080546001908101909155548311156103d957604051806040016040528060068152602001653134b3b3b2b960d11b8152509150610453565b60015483101561040a576040518060400160405280600781526020016639b6b0b63632b960c91b8152509150610453565b600380546001600160a01b031916331760ff60a01b1916600160a01b17905560408051808201909152601081526f2cb7ba9033bab2b9b990373ab6b132b960811b602082015291505b50919050565b60025481565b600354600160a01b900460ff1681565b6000546001600160a01b031633146104ba576040805162461bcd60e51b81526020600482015260096024820152683737ba1037bbb732b960b91b604482015290519081900360640190fd5b600180600354600160a01b900460ff1660018111156104d557fe5b14610516576040805162461bcd60e51b815260206004820152600c60248201526b7374617465206572726f722760a01b604482015290519081900360640190fd5b6003546040516001600160a01b0390911690600a476009020480156108fc02916000818181858888f19350505050158015610555573d6000803e3d6000fd5b50600080546040516001600160a01b03909116914780156108fc02929091818181858888f19350505050158015610590573d6000803e3d6000fd5b5050565b6003546001600160a01b03168156fea265627a7a72315820dc13cb3a9d3e3e82cb6e337bd7038787b7cb70179bd78c37b052240a6de66d8264736f6c63430005110032",
  "source": "pragma solidity ^0.5.0 ;\r\n\r\n\r\ncontract GuessNumber{\r\n    \r\n    address payable public  owner ; // 合約發起人\r\n    uint public answer; //猜數字答案\r\n    uint public  price ; //支付費用\r\n    address payable public  winner ; //贏家\r\n    enum State {Start , end} \r\n    State public state ;\r\n\r\n     mapping(address => uint) public counts ; //計算玩家猜次數\r\n\r\n    modifier onlyOwner{\r\n        require(msg.sender == owner, \"not owner\");\r\n        _;\r\n    }\r\n    \r\n    modifier checkState(State _state){\r\n        require(state == _state , \"state error'\");\r\n        _;\r\n    }\r\n    \r\n    constructor(uint _price)public{\r\n        owner = msg.sender;\r\n        price = _price * 1 ether ;\r\n        state = State.Start;\r\n        answer = uint256(sha256(abi.encodePacked(now))) % 100 ;\r\n    }\r\n    \r\n    function guess(uint _answer) public payable checkState(State.Start) returns(string memory){\r\n        require(owner != msg.sender, \"owner cant join\");\r\n        require(price == msg.value ,\" pay error\");\r\n        require(_answer<100 , \"error\");\r\n        counts[msg.sender]= counts[msg.sender] + 1;\r\n        \r\n        if(_answer > answer){\r\n            return \"bigger\";\r\n        }\r\n        else if(_answer < answer){\r\n             return \"smaller\";\r\n        }\r\n        \r\n        else{\r\n            winner = msg.sender;\r\n            state = State.end ;\r\n            return \"You guess number\";\r\n           \r\n        }\r\n    }\r\n    \r\n    function sendMoney() onlyOwner checkState(State.end)public{\r\n        winner.transfer(address(this).balance * 9 /10);\r\n        owner.transfer(address(this).balance);\r\n    }\r\n    \r\n    function getContractBalance() public view returns(uint){\r\n        \r\n        return address(this).balance ;\r\n    }\r\n\r\n}\r\n",
  "sourcePath": "c:/Users/user/Desktop/Lotto Smart Contract/contracts/lotto.sol",
  "compiler": {
    "name": "solc",
    "version": "0.5.17+commit.d19bba13.Emscripten.clang"
  },
  "schemaVersion": "3.3.1",
  "updatedAt": "2020-11-20T02:42:30.261Z",
  "devdoc": {
    "methods": {}
  },
  "userdoc": {
    "methods": {}
  }
}